{"abi":[{"type":"function","name":"addStudent","inputs":[{"name":"_name","type":"string","internalType":"string"},{"name":"_favoriteNumber","type":"uint256","internalType":"uint256"}],"outputs":[],"stateMutability":"nonpayable"},{"type":"function","name":"listOfPeople","inputs":[{"name":"","type":"uint256","internalType":"uint256"}],"outputs":[{"name":"favoriteNumber","type":"uint256","internalType":"uint256"},{"name":"name","type":"string","internalType":"string"}],"stateMutability":"view"},{"type":"function","name":"nameToFavoriteNumber","inputs":[{"name":"","type":"string","internalType":"string"}],"outputs":[{"name":"","type":"uint256","internalType":"uint256"}],"stateMutability":"view"},{"type":"function","name":"retrieve","inputs":[],"outputs":[{"name":"","type":"uint256","internalType":"uint256"}],"stateMutability":"view"},{"type":"function","name":"store","inputs":[{"name":"_favoriteNumber","type":"uint256","internalType":"uint256"}],"outputs":[],"stateMutability":"nonpayable"}],"bytecode":{"object":"0x6080604052348015600e575f5ffd5b506105378061001c5f395ff3fe608060405234801561000f575f5ffd5b5060043610610055575f3560e01c80630e5eeef7146100595780632e64cec11461006e5780632ebce631146100845780636057361d146100a55780638bab8dd5146100b7575b5f5ffd5b61006c6100673660046102dd565b6100e2565b005b5f545b6040519081526020015b60405180910390f35b61009761009236600461031f565b61018a565b60405161007b929190610336565b61006c6100b336600461031f565b5f55565b6100716100c5366004610372565b805160208183018101805160028252928201919093012091525481565b60408051808201909152818152602081018381526001805480820182555f91909152825160029091027fb10e2d527612073b26eecdfd717e6a320cf44b4afac2b0732d9fcbe2b7fa0cf68101918255915190917fb10e2d527612073b26eecdfd717e6a320cf44b4afac2b0732d9fcbe2b7fa0cf701906101629082610430565b5050508060028360405161017691906104eb565b908152604051908190036020019020555050565b60018181548110610199575f80fd5b5f91825260209091206002909102018054600182018054919350906101bd906103ac565b80601f01602080910402602001604051908101604052809291908181526020018280546101e9906103ac565b80156102345780601f1061020b57610100808354040283529160200191610234565b820191905f5260205f20905b81548152906001019060200180831161021757829003601f168201915b5050505050905082565b634e487b7160e01b5f52604160045260245ffd5b5f82601f830112610261575f5ffd5b813567ffffffffffffffff81111561027b5761027b61023e565b604051601f8201601f19908116603f0116810167ffffffffffffffff811182821017156102aa576102aa61023e565b6040528181528382016020018510156102c1575f5ffd5b816020850160208301375f918101602001919091529392505050565b5f5f604083850312156102ee575f5ffd5b823567ffffffffffffffff811115610304575f5ffd5b61031085828601610252565b95602094909401359450505050565b5f6020828403121561032f575f5ffd5b5035919050565b828152604060208201525f82518060408401528060208501606085015e5f606082850101526060601f19601f8301168401019150509392505050565b5f60208284031215610382575f5ffd5b813567ffffffffffffffff811115610398575f5ffd5b6103a484828501610252565b949350505050565b600181811c908216806103c057607f821691505b6020821081036103de57634e487b7160e01b5f52602260045260245ffd5b50919050565b601f82111561042b57805f5260205f20601f840160051c810160208510156104095750805b601f840160051c820191505b81811015610428575f8155600101610415565b50505b505050565b815167ffffffffffffffff81111561044a5761044a61023e565b61045e8161045884546103ac565b846103e4565b6020601f821160018114610490575f83156104795750848201515b5f19600385901b1c1916600184901b178455610428565b5f84815260208120601f198516915b828110156104bf578785015182556020948501946001909201910161049f565b50848210156104dc57868401515f19600387901b60f8161c191681555b50505050600190811b01905550565b5f82518060208501845e5f92019182525091905056fea26469706673582212205977a80d331d4afd74ea73ad0a5f9d29bf285cb59b37e848e3bf5918f5154cbf64736f6c634300081c0033","linkReferences":{}},"methodIdentifiers":{"addStudent(string,uint256)":"0e5eeef7","listOfPeople(uint256)":"2ebce631","nameToFavoriteNumber(string)":"8bab8dd5","retrieve()":"2e64cec1","store(uint256)":"6057361d"},"id":20}