{"abi":[{"type":"constructor","inputs":[{"name":"_studentNumber","type":"uint256","internalType":"uint256"},{"name":"_GWA","type":"uint256","internalType":"uint256"},{"name":"_studentName","type":"string","internalType":"string"},{"name":"_studentAddress","type":"string","internalType":"string"},{"name":"_studentBday","type":"string","internalType":"string"},{"name":"_course","type":"string","internalType":"string"}],"stateMutability":"nonpayable"},{"type":"function","name":"GWA","inputs":[],"outputs":[{"name":"","type":"uint256","internalType":"uint256"}],"stateMutability":"view"},{"type":"function","name":"course","inputs":[],"outputs":[{"name":"","type":"string","internalType":"string"}],"stateMutability":"view"},{"type":"function","name":"getAddress","inputs":[],"outputs":[{"name":"","type":"string","internalType":"string"}],"stateMutability":"view"},{"type":"function","name":"getBday","inputs":[],"outputs":[{"name":"","type":"string","internalType":"string"}],"stateMutability":"view"},{"type":"function","name":"getCourse","inputs":[],"outputs":[{"name":"","type":"string","internalType":"string"}],"stateMutability":"view"},{"type":"function","name":"getGWA","inputs":[],"outputs":[{"name":"","type":"uint256","internalType":"uint256"}],"stateMutability":"view"},{"type":"function","name":"getName","inputs":[],"outputs":[{"name":"","type":"string","internalType":"string"}],"stateMutability":"view"},{"type":"function","name":"getStudentNumber","inputs":[],"outputs":[{"name":"","type":"uint256","internalType":"uint256"}],"stateMutability":"view"},{"type":"function","name":"studentAddress","inputs":[],"outputs":[{"name":"","type":"string","internalType":"string"}],"stateMutability":"view"},{"type":"function","name":"studentBday","inputs":[],"outputs":[{"name":"","type":"string","internalType":"string"}],"stateMutability":"view"},{"type":"function","name":"studentName","inputs":[],"outputs":[{"name":"","type":"string","internalType":"string"}],"stateMutability":"view"},{"type":"function","name":"studentNumber","inputs":[],"outputs":[{"name":"","type":"uint256","internalType":"uint256"}],"stateMutability":"view"}],"bytecode":{"object":"0x608060405234801561000f575f5ffd5b5060405161067338038061067383398101604081905261002e91610113565b5f869055600185905560026100438582610264565b5060036100508482610264565b50600461005d8382610264565b50600561006a8282610264565b5050505050505061031e565b634e487b7160e01b5f52604160045260245ffd5b5f82601f830112610099575f5ffd5b81516001600160401b038111156100b2576100b2610076565b604051601f8201601f19908116603f011681016001600160401b03811182821017156100e0576100e0610076565b6040528181528382016020018510156100f7575f5ffd5b8160208501602083015e5f918101602001919091529392505050565b5f5f5f5f5f5f60c08789031215610128575f5ffd5b86516020880151604089015191975095506001600160401b0381111561014c575f5ffd5b61015889828a0161008a565b606089015190955090506001600160401b03811115610175575f5ffd5b61018189828a0161008a565b608089015190945090506001600160401b0381111561019e575f5ffd5b6101aa89828a0161008a565b60a089015190935090506001600160401b038111156101c7575f5ffd5b6101d389828a0161008a565b9150509295509295509295565b600181811c908216806101f457607f821691505b60208210810361021257634e487b7160e01b5f52602260045260245ffd5b50919050565b601f82111561025f57805f5260205f20601f840160051c8101602085101561023d5750805b601f840160051c820191505b8181101561025c575f8155600101610249565b50505b505050565b81516001600160401b0381111561027d5761027d610076565b6102918161028b84546101e0565b84610218565b6020601f8211600181146102c3575f83156102ac5750848201515b5f19600385901b1c1916600184901b17845561025c565b5f84815260208120601f198516915b828110156102f257878501518255602094850194600190920191016102d2565b508482101561030f57868401515f19600387901b60f8161c191681555b50505050600190811b01905550565b6103488061032b5f395ff3fe608060405234801561000f575f5ffd5b50600436106100b1575f3560e01c8063b1a273771161006e578063b1a2737714610106578063b508ba311461010d578063b8f31a8114610115578063cc7f2db01461011d578063dcf6359114610125578063ea9cc7dd1461012d575f5ffd5b806317d7de7c146100b557806332cc6e75146100d357806338cc4831146100e5578063484a0d41146100ed5780635a026dc6146100f55780638c14acd5146100fe575b5f5ffd5b6100bd610135565b6040516100ca91906102a5565b60405180910390f35b6001545b6040519081526020016100ca565b6100bd6101c5565b6100d75f5481565b6100d760015481565b6100bd6101d4565b5f546100d7565b6100bd6101e3565b6100bd61026f565b6100bd61027c565b6100bd61028b565b6100bd610298565b606060028054610144906102da565b80601f0160208091040260200160405190810160405280929190818152602001828054610170906102da565b80156101bb5780601f10610192576101008083540402835291602001916101bb565b820191905f5260205f20905b81548152906001019060200180831161019e57829003601f168201915b5050505050905090565b606060038054610144906102da565b606060058054610144906102da565b600280546101f0906102da565b80601f016020809104026020016040519081016040528092919081815260200182805461021c906102da565b80156102675780601f1061023e57610100808354040283529160200191610267565b820191905f5260205f20905b81548152906001019060200180831161024a57829003601f168201915b505050505081565b600380546101f0906102da565b606060048054610144906102da565b600580546101f0906102da565b600480546101f0906102da565b602081525f82518060208401528060208501604085015e5f604082850101526040601f19601f83011684010191505092915050565b600181811c908216806102ee57607f821691505b60208210810361030c57634e487b7160e01b5f52602260045260245ffd5b5091905056fea2646970667358221220e28dbb9fb15ad113d3daf8e5099d96ac6704dee8bfa3f2dffca17958d000049d64736f6c634300081c0033","linkReferences":{}},"methodIdentifiers":{"GWA()":"5a026dc6","course()":"dcf63591","getAddress()":"38cc4831","getBday()":"cc7f2db0","getCourse()":"8c14acd5","getGWA()":"32cc6e75","getName()":"17d7de7c","getStudentNumber()":"b1a27377","studentAddress()":"b8f31a81","studentBday()":"ea9cc7dd","studentName()":"b508ba31","studentNumber()":"484a0d41"},"id":20}